:100000000C942A000C9434000C9434000C943400AA
:100010000C9434000C9434000C9434000C94340090
:100020000C9434000C9434000C9434000C94340080
:100030000C9434000C9434000C9434000C94340070
:100040000C9434000C9434000C9434000C94340060
:100050000C94340011241FBECFE5D4E0DEBFCDBF29
:100060000E944F000C940A020C9400009B01AC010A
:1000700060E472E48FE090E00E94DB0121503040A8
:1000800029B930BD86E880BD88E18AB908955F9BB3
:10009000FECF8CB108955D9BFECF8CB908958CEF97
:1000A00084BB60E875E280E090E00E94360020E9C1
:1000B00031E070E460E250E140E85F9BFECF8CB13C
:1000C000823699F0833618F4813651F505C08336AF
:1000D000A9F0843629F51BC045BB80E197E2F90100
:1000E0003197F1F70197D9F722C075BB80E197E20C
:1000F000F9013197F1F70197D9F719C065BB80E194
:1001000097E2F9013197F1F70197D9F710C055BB84
:1001100080E197E2F9013197F1F70197D9F707C02C
:1001200088EE93E0F9013197F1F70197D9F715BA05
:1001300088E893E1F9013197F1F7019709F4BDCF10
:10014000F9CF6F927F928F929F92AF92BF92CF9290
:10015000DF92EF92FF920F931F93DF93CF93CDB770
:10016000DEB77B018C016DB67EB6CC24DD240DC0DC
:100170000894C11CD11C2AE030E040E050E00E940D
:10018000B901C901DA01BC01CD0161157105810513
:10019000910571F7C601880F991F2DB73EB7281B2F
:1001A000390B0FB6F8943EBF0FBE2DBF8DB69EB66D
:1001B0000894811C911C540118C0C801B7012AE0A1
:1001C00030E040E050E00E94B901F5016193719385
:1001D0005F01C801B7012AE030E040E050E00E9432
:1001E000B901C901DA017C018D01E114F1040105B5
:1001F000110519F7F6013197EE0FFF1FE80DF91DF4
:1002000020E030E008C080815D9BFECF805D8CB92E
:100210002F5F3F4F32972C153D05A9F70FB6F89485
:100220007EBE0FBE6DBECF91DF911F910F91FF90EB
:10023000EF90DF90CF90BF90AF909F908F907F9086
:100240006F900895AF92BF92CF92DF92EF92FF929C
:100250000F931F93DF93CF93CDB7DEB7FC01ADB6FD
:10026000BEB697FF07C05D9BFECF8DE28CB9F095BF
:10027000E195FF4FCF0100E010E007C00F5F1F4F77
:100280006AE070E00E94A601CB010097B9F7C801AF
:10029000880F991F2DB73EB7281B390B0FB6F8945E
:1002A0003EBF0FBE2DBFCDB6DEB60894C11CD11C1B
:1002B00076010FC0CF016AE070E00E94A601D7016D
:1002C0008D939D937D01CF016AE070E00E94A601AD
:1002D000FB01309779F7F8013197EE0FFF1FEC0D16
:1002E000FD1D20E030E008C080815D9BFECF805D79
:1002F0008CB92F5F3F4F329720173107A9F70FB600
:10030000F894BEBE0FBEADBECF91DF911F910F918D
:10031000FF90EF90DF90CF90BF90AF900895DC01F9
:100320000D900020E9F71197A81BB90B20E030E0F1
:1003300009C0FC01E20FF31FE0815D9BFECFECB929
:100340002F5F3F4F2A173B07A0F3089597FB092E15
:1003500007260AD077FD04D049D006D000201AF431
:10036000709561957F4F0895F6F7909581959F4F11
:100370000895A1E21A2EAA1BBB1BFD010DC0AA1FE6
:10038000BB1FEE1FFF1FA217B307E407F50720F0FE
:10039000A21BB30BE40BF50B661F771F881F991F79
:1003A0001A9469F760957095809590959B01AC01C2
:1003B000BD01CF01089597FB092E05260ED057FDEC
:1003C00004D0D7DF0AD0001C38F450954095309502
:1003D00021953F4F4F4F5F4F0895F6F790958095C9
:1003E000709561957F4F8F4F9F4F0895AA1BBB1B40
:1003F00051E107C0AA1FBB1FA617B70710F0A61B25
:10040000B70B881F991F5A95A9F780959095BC0145
:08041000CD010895F894FFCF1F
:00000001FF
